:020000040800F2
:10000000300900200D020008AF2600083F2200083A
:10001000AD260008C70700083B2E000800000000BE
:10002000000000000000000000000000B3260008EF
:10003000FB07000800000000B1260008B5260008F4
:1000400027020008270200082702000827020008EC
:1000500027020008270200082702000827020008DC
:1000600027020008270200082702000827020008CC
:1000700027020008270200082702000827020008BC
:1000800027020008270200082702000827020008AC
:10009000270200082702000827020008270200089C
:1000A000270200082702000827020008270200088C
:1000B000270200082702000827020008270200087C
:1000C000270200082702000827020008270200086C
:1000D000270200082702000827020008270200085C
:1000E000270200082702000827020008270200084C
:1000F000270200082702000827020008270200083C
:10010000270200082702000827020008270200082B
:10011000270200082702000827020008270200081B
:10012000270200082702000827020008270200080B
:1001300027020008270200082702000827020008FB
:1001400027020008270200082702000827020008EB
:1001500027020008270200082702000827020008DB
:1001600027020008270200082702000827020008CB
:1001700027020008270200082702000800000000EC
:1001800027020008270200082702000827020008AB
:10019000270200082702000827020008270200089B
:1001A000270200082702000827020008270200088B
:1001B000270200082702000827020008270200087B
:1001C000270200082702000800000000270200089C
:1001D000270200082702000827020008270200085B
:1001E000270200082702000827020008270200084B
:1001F0002702000827020008DFF80CD000F062FA9E
:100200000048004761370008300900200648804751
:1002100006480047FEE7FEE7FEE7FEE7FEE7FEE7EB
:10022000FEE7FEE7FEE7FEE761270008F9010008A8
:100230002DE9F05F0546002092469B46884606461B
:10024000814640241BE0284641464746224600F0AE
:1002500070F853465A46C01A914110D311461846B9
:10026000224600F057F82D1A67EB01084F46224648
:100270000120002100F04EF817EB00094E41201E2E
:10028000A4F10104DFDC484631462A464346BDE876
:10029000F09F40EA01039B0703D009E008C9121F41
:1002A00008C0042AFAD203E011F8013B00F8013B30
:1002B000521EF9D27047D2B201E000F8012B491E5C
:1002C000FBD270470022F6E710B513460A460446F3
:1002D0001946FFF7F0FF204610BD421C10F8011B25
:1002E0000029FBD1801A704730B50B46014600202B
:1002F0002022012409E021FA02F59D4205D303FAE8
:1003000002F5491B04FA02F52844151EA2F1010268
:10031000F1DC30BD202A04DB203A00FA02F1002093
:1003200070479140C2F1200320FA03F31943904033
:100330007047202A04DB203A21FA02F0002170479E
:1003400021FA02F3D040C2F120029140084319463D
:1003500070472DE9FE4F804681EA0300C00F0C462E
:10036000009021F0004123F00045B8EB0200A941C4
:1003700005D24046214690461C460B46024623F0D5
:100380000040104347D0270DC7F30A00C3F30A51BA
:100390000290401A019040286BDAC3F3130040F436
:1003A000801B0098924620B10023D2EB030A63EB36
:1003B0000B0B01985946C0F140025046FFF7AAFFC7
:1003C00006460D4650465946019A00F08DF910EB4D
:1003D00008006141002487EA115284EAE7731A4356
:1003E00040D0009A62B3019A012A4FEA075215DC05
:1003F000001B61EB02014FF0004202EA0752CDE917
:100400000042001C41F5801132462B4600F08DF968
:1004100003B0BDE8F08F40462146F9E7001B61EBD1
:100420000201001C41F5801300185B412018A2F561
:10043000001747EB030140EAD570B6196D4111E092
:100440006D084FEA360645EAC0754FEA0752001BB1
:1004500061EB0201001C41F5801149084FEA3000B0
:100460000019514132462B4603B0BDE8F04F00F071
:100470004DB90098012240000023D0EB020263EB4B
:10048000E073009821464FEAE074B8EB000061EB9E
:100490000401E9E783F000435BE781F0004158E79E
:1004A0002DE9FE4F81EA030404F0004421F00041ED
:1004B00000944FF0000B23F0004350EA01045ED09B
:1004C00052EA03045BD0C3F30A54C1F30A552C4427
:1004D000A4F2F3340194A0FB0254C1F3130141F4DC
:1004E0008011C3F3130343F4801301FB024400FBA8
:1004F000034E840A970A44EA815447EA8357A4FBCF
:10050000076802958D0A05FB07854FEA932C04FBCB
:100510000C542705029D4FEA065847EA1637B5EBFB
:1005200008056EEB070C870E920E47EA811742EA28
:100530008312A7FB0201B6EB0B0164EB00042B0D49
:1005400043EA0C335E1844EB1C50DA465146E7FB95
:100550000201C5F313044FEA0B3343EA14534FEA85
:100560000432019C43EA0603A4F10C040294009CAB
:10057000CDE900B400F0D9F803B0BDE8F08F002059
:100580000146F9E72DE9F04D81EA030404F0004B40
:1005900021F0004514464FF0000A23F0004150EAD4
:1005A000050220D054EA01021DD0C5F30A570246C5
:1005B000C5F31303C1F31300C1F30A5640F48015C9
:1005C00043F48013A7EB0608101BD64608F2FD384B
:1005D00073EB050002D308F1010801E092185B41BA
:1005E000B8F1000F03DA00200146BDE8F08D0020CD
:1005F0004FF48011064684460EE0171B73EB050787
:1006000005D3121B63EB050306434CEA010C4908B2
:100610004FEA300092185B4150EA0107EDD152EAEF
:10062000030012D082EA040083EA0501084305D0E2
:10063000101BAB4106D20122002306E000224FF03E
:10064000004302E06FF0010253101AEB06004CEB7E
:10065000085110EB0A0041EB0B01BDE8F04D00F032
:1006600055B8C1F30A52C1F3130140F2FF3341F40C
:1006700080119A4202DA00200146704740F233436B
:100680009A42A2F2334202DC5242FFF752BEFFF717
:1006900041BE000030B5041E71F1000404DB4FF0D0
:1006A0000044404264EB0101141E73F1000405DBB9
:1006B0001C464FF00043524263EB0403994208BFCB
:1006C000904230BD064C074D06E0E06840F0010363
:1006D00094E8070098471034AC42F6D3FFF790FD3A
:1006E0001439000834390008202A06DBCB17203AD9
:1006F00041FA02F043EAE07306E041FA02F3D04027
:10070000C2F12002914008431946704710B5141EEB
:1007100073F1000408DA401C41F1000192185B41BA
:100720001A4301D120F0010010BD2DE9F04D924691
:100730009B4611B1B1FA81F202E0B0FA80F22032A8
:100740009046FFF7E7FD04460F4640EA0A0041EAFB
:100750000B0153465A46084313D0114653EA010091
:1007600019D0C8F140025046FFF7E3FD05460E469A
:10077000504659464246FFF7CDFD084305D00120BB
:1007800004E020463946BDE8F08D0020054346EAE6
:10079000E0762C4337430A986305E40AA0EB08008F
:1007A0000022FD0A44EA47540A3002D500200146DF
:1007B000E9E7010510196941DDE9084500196941BA
:1007C000BDE8F04DA2E7FEE730B503464AF201046A
:1007D0004FF6FF700DE000BF13F8015B0022684088
:1007E000C5074FEA500000D06040521CD2B2082A20
:1007F000F6D34A1ED1B2EFD230BD70472DE9F04199
:10080000044621B14FF40061C800C4E90201E06967
:100810000025002862D028462368D4E9021C3A4FFC
:1008200040261A6841EA0C0101433A4041F4007045
:100830001043186020680768012000F073F82068F2
:1008400007602068466020684668012000F06AF86A
:1008500020684FF641724660206885602068C56058
:1008600021688869104040F08000886120688669AE
:10087000012000F057F8206886612068C561206873
:10088000C569012000F04EF82068204B2049C56161
:10089000206800F5805082691A4011438161206808
:1008A00000F580508569012000F03CF82068194966
:1008B00000F580508561206800F580500160206857
:1008C00000F580500568012000F02CF8206800F544
:1008D00080500560A069012803D009E04FF48060D2
:1008E0009AE720680C4A00F58050C1691143C16144
:1008F00060690A4982880A640278D0F8010042EAF5
:1009000000204864BDE8F0810F8120FF233FDEF81E
:10091000040020028020C10240000100008002404B
:100920007047000070B5044600F0F4FA0546601CFC
:1009300002D004480078044400F0ECFA401BA042C6
:10094000FAD370BD080000202DE9FC474FF00006E7
:100950000400B146009603D094F8440018B107E0B3
:100960000120BDE8FC87204684F8456000F0E4F8EB
:100970006748016841F480410160006800F48040EC
:1009800001906448016821F4000101600168226A55
:1009900011430160206800F58050016841F00101B9
:1009A000016000F0B7FA4FF4FA77054609E000BF9E
:1009B00000F0B0FA401BB84203D9032084F8440089
:1009C00068E0206800F580500068C007F0D120681A
:1009D000006920F01C0501F06BF94F4A4F490244B1
:1009E0008A4202D245F0080516E04D494D4A0144BD
:1009F000914202D245F00C050EE04B4A4B490244AD
:100A00008A4209D34A4A4B491044884202D245F0EF
:100A1000040501E045F010052068056100214FF450
:100A20000042204600F040F94FF00105B0BBFF2026
:100A3000FFF778FF606890B300F06CFA804641F2EF
:100A4000883701216A46204600F0EAF800F062FA91
:100A5000A0EB0800B84217D800984007F1D5002154
:100A600020464FF4805200F01FF9B8B900F052FA56
:100A700080466A460121204600F0D2F800F04AFA8A
:100A8000A0EB0800B8420BD901212046FFF7B6FEC3
:100A900084F84450032084F8456062E724E018E0BD
:100AA00000988006E5D51F216A46204600F0B8F878
:100AB000D0B90098C10603D54FF40061E16000E0B1
:100AC000E660400701D5A66019E04FF48040A060C1
:100AD00015E0D4E90210C00840EA510082B2204675
:100AE000002100F0E1F830B101212046FFF786FE39
:100AF00084F8445034E740F6FF70FFF713FF49468F
:100B00002046FFF77BFE84F84450002029E70000D0
:100B1000443802400438014000D3CEFEC0E1E40076
:100B200040F1E9FD40787D0100796CFC005A6202D9
:100B3000001F0AFA80F0FA02F0B587B004461421CB
:100B40006846FFF7BFFB30492068884259D12F48DB
:100B5000016841F000710160016801F000710591C8
:100B6000016841F080610160016801F080610591D8
:100B7000016841F000610160016801F000610591C8
:100B8000016841F004010160016801F00401059170
:100B9000016841F001010160016801F00101059166
:100BA000016841F002010160016801F00201059154
:100BB000016841F040010160006802240025694697
:100BC00000F04000059003260B2732208DE8F1004D
:100BD0000F4800F0A7F8862069468DE8F1000D481F
:100BE00000F0A0F8200369468DE8F1000A4800F003
:100BF00099F84FF4205069468DE8F100074800F05D
:100C000091F807B0F0BD000000800240303802408B
:100C100000080240000002400004024000180240A8
:100C20002DE9F047044690F84400914682281DD0F3
:100C300082224FF6FF7084F844204FF4F863226854
:100C400003EA8111258A136900EAC52003F01C0319
:100C50001843014321F0020040F00105156100F046
:100C600059F9012706464FF4803811E00220BDE80B
:100C7000F08700BF00F04EF9801B404506D30020EE
:100C800084F8447084F845000320F0E72068056983
:100C9000E807EFD12068406981B2C9F8001084F8F4
:100CA00044700020E3E700002DE9F041044690F88D
:100CB000440042281ED042204FF6FF7384F84400BF
:100CC00096B220684FF4F867258A07EA8111026915
:100CD000466103EAC520236802F01C021043014369
:100CE00041F003051D6100F015F9012706464FF498
:100CF000803811E00220BDE8F08100BF00F00AF961
:100D0000801B404506D3002084F8447084F84500D9
:100D10000320F0E720680569E807EFD184F8447004
:100D2000E9E700002DE9F84FDFF89CE100224FF0E1
:100D300001084FF0030B4FF00F0A00BF0B6808FAD1
:100D400002F42340A34271D14D68022D01D0122D2F
:100D50000FD1D5080E69570700EB8505A9462D6A06
:100D6000FF0E0AFA07FCBE4025EA0C052E43C9F81F
:100D700020600F79550006680BFA05FC07F00307A1
:100D800026EA0C06AF40374307604E68012E05D0B7
:100D9000022E03D0112E01D0122E0ED18668CF68FC
:100DA00026EA0C06AF403743876046680F79A643B2
:100DB000C7F30017974037434760C4688E6824EA3A
:100DC0000C04AE402643C6604C68E40075D53F4C29
:100DD000256845F480452560246822F003069507C0
:100DE00004F4804400943A4C2D0F2644D6F8084869
:100DF000DFF8E0C00AFA05F7604524EA070401D1EC
:100E000000272EE0344FB84201D1012729E0334FAB
:100E1000B84201D1022724E0314FB84201D1032763
:100E20001FE0304FB84202D104271AE045E02E4FB0
:100E3000B84201D1052714E02C4FB84201D1062752
:100E40000FE02B4FB84201D107270AE0294FB842E3
:100E500001D1082705E0284FB84201D1092700E059
:100E60000A27AF4027437546C6F808784E68DEF873
:100E70000040F60324EA030400D51C43124E2C6004
:100E8000361D4D683468AD0324EA030400D51C43C5
:100E90000D4F346008374D683C68ED0224EA0304C6
:100EA00000D51C43084D3C600C354E682C68B602DA
:100EB00024EA030400D51C432C60521C102AFFF4C2
:100EC0003DAFBDE8F88F0000003C014044380240CF
:100ED00000300140000002400004024000080240CF
:100EE000000C0240001002400014024000180240B2
:100EF000001C02400020024000240240426931EA06
:100F0000020200D10904816170470AB18161704712
:100F10000904FBE7014880687047000008000020D2
:100F200030B590F84120202A24D190F84020012AA1
:100F300020D0012380F84030242280F84120202353
:100F400000240268156825F001051560026815681F
:100F500025F480551560026815680D431560016819
:100F60000A6842F001020A6080F8413080F840408F
:100F7000002030BD022030BD30B590F84120202A3D
:100F800022D190F84020012A1ED0012380F8403061
:100F9000242280F84120202400250268136823F0D1
:100FA000010313600268136823F4706343EA0121AC
:100FB000116001680A6842F001020A6080F841404D
:100FC00080F84050002030BD022030BD70B50400D4
:100FD00004D094F84100002510B106E0012070BD56
:100FE000204684F8405000F071F9242084F8410034
:100FF0002068016821F001010160D4E9001020F0AF
:10100000706008612068816821F400418160E068B7
:1010100021680128A06806D040F404408860E06898
:10102000022803D006E040F40040F7E721684FF4BF
:101030000060486020212068114A436813434360E0
:101040002068C26822F40042C26054F8106B0DCCD4
:10105000104340EA0320F06054F81C3CD4E900023D
:101060001043186054F81C0D026842F0010202603F
:10107000656484F84110256384F84250002070BDF7
:10108000008000022DE9F84F044690F841001F4609
:101090009046DDF828A08B4620287ED194F84000A9
:1010A00001287AD0012084F84000FFF733FF0122A5
:1010B000064619230090D103204601F02DF9E0BB2C
:1010C0000025222184F84110102084F84200656434
:1010D0006785618DFF2732484FF00079C4F824807E
:1010E000FF294FF08078656303D927853A46009041
:1010F00039E0618D218500903AE05946204601F0A3
:10110000F5F813E001F036F9B8B92068616A406A71
:101110000870606A401C6062208D401E81B221858B
:10112000608D401E6085608D00B169B1608D324672
:10113000514600282046E5D100E002E001F05EF9CA
:10114000D0B10120BDE8F88F00225346802120460F
:10115000009601F0E1F80028F3D1608DFF2804D952
:1011600027853A4600954346C7E7608D2085009560
:101170004B4694F82820C0E720682021094AC16125
:10118000206843681340436084F8411084F842505B
:10119000002084F84050D5E7FFE70220D2E70000A6
:1011A0000024008000E800FE2DE9F84F044690F886
:1011B00041001F469046DDF828A08B4620287ED1AE
:1011C00094F8400001287AD0012084F84000FFF70D
:1011D000A1FE0122064619230090D103204601F00A
:1011E0009BF8E0BB0025212184F84110102084F8F1
:1011F000420065646785618DFF2732484FF00079B2
:10120000C4F82480FF294FF08078656303D92785CF
:101210003A46009039E0618D218500903AE05946C8
:10122000204601F063F813E001F00FF9B8B9606AE5
:10123000216800788862606A401C6062608D401E90
:101240006085208D401E80B22085618D01B168B11E
:10125000608D3246514600282046E5D100E002E08C
:1012600001F0CCF8D0B10120BDE8F88F0022534640
:1012700080212046009601F04FF80028F3D1608DC0
:10128000FF2804D927853A4600954346C7E7608D75
:10129000208500954B4694F82820C0E7206820213F
:1012A000094AC161206843681340436084F84110D3
:1012B00084F84250002084F84050D5E7FFE7022030
:1012C000D2E700000020008000E800FE10B586B0E4
:1012D000044614216846FEF7F5FF1249206888424B
:1012E0001ED11148016841F002010160006812211D
:1012F000012200F002000590032304244FF4407003
:101300008DE81F0009486946FFF70CFD06481030BC
:10131000016841F400110160006800F400100590BC
:1013200006B010BD005400403038024000040240B6
:1013300002488168027811448160704708000020EB
:10134000032010B500F060F8002000F005F800F070
:1013500023F8002010BD000070B50D4D04464FF479
:101360007A700C4A29781268B0FBF1F0B2FBF0F009
:1013700000F092FE48B9102C07D200222146501EE0
:1013800000F022F800206C6070BD012070BD0000EC
:1013900008000020140000200A4808B5016841F048
:1013A00080510160006800F0805000900548001DE9
:1013B000016841F480410160006800F480400090C1
:1013C00008BD0000403802400E4BF0B41B680D46CB
:1013D000C3F30223C3F10706042E00D90426191D06
:1013E000072901D2002300E0DB1E012404FA06F1E4
:1013F0009C40491E2940641E994014402143F0BC82
:1014000001F030BD0CED00E0064900F0070210B518
:101410004FF6FF040868044B204040EA02201843BE
:10142000086010BD0CED00E00000FA050168012322
:10143000C0F8FC33002280F8F4238869044A40F0A5
:1014400000608861486D10434865002070470000C7
:10145000030000102DE9F04104008AB004D094F894
:10146000BD03002520B108E001200AB0BDE8F081ED
:10147000204684F8BC5300F063F8032084F8BD03D1
:10148000206801F09BFC04F1100168462822884680
:10149000FEF7FFFE94E80F0001F068FB0227E0BBB7
:1014A0002068002101F0B2FC0020012611E000BFFD
:1014B000C0EBC001421C04EB810181F83D6081F862
:1014C0003F504D648D640D6581F83C00A1F84200E9
:1014D000D0B261688142EBD8002011E0C0EBC001BE
:1014E000421C04EB810181F8FD5181F8FF51C1F8E4
:1014F0000452C1F80852C1F8105281F8FC01D0B270
:1015000061688142EAD8282241466846FEF7C1FE5A
:1015100094E80F0001F088FB10B184F8BD73A3E7D5
:10152000606A84F8385084F8BD63012802D12046EF
:10153000FFF77CFF206801F06BFB002095E70000BF
:1015400030B587B0044614216846FEF7BBFE20681C
:10155000B0F1A04F33D11B48016841F00101016097
:10156000006800240221184D00F0010005904FF49E
:10157000E8500A238DE8130003226946CDE90323CE
:101580002846FFF7CFFB68156946CDE900042846D9
:101590000294FFF7C7FB0B48001D016841F0800172
:1015A0000160006800F08000059006481430016872
:1015B00041F480410160006800F48040059007B06C
:1015C00030BD000030380240000002401848F8B535
:1015D000016841F0805101600068164C00F08050B5
:1015E0000090206840F480302060FFF793FC4FF4B7
:1015F0007A76054605E000BFFFF78CFC401BB04241
:101600000FD86068C003F7D5206840F40030206030
:10161000FFF780FC054606E0FFF77CFC401BB0426C
:1016200001D90320F8BD60688003F5D50020F8BD1E
:1016300040380240007000400248016841F4807167
:1016400001607047007000402DE9F84F04460078B3
:10165000DFF824944FF000063746C0070ED0D9F8C3
:10166000001021F40001C9F80010D9F80010626BD5
:101670001143C9F80010606B00B90126FE4D2068C7
:10168000843500030ED5E16B286820F44010084330
:101690002860E06BB0F5801F01D010B102E0012698
:1016A00000E0012720684FF4800BC0020CD5216CAC
:1016B000286820F4400008432860206C584501D178
:1016C000012601E000B901272068C10100D50126EB
:1016D000800666D5E8483830016841F080510160E5
:1016E0000068DFF898A300F080500090DAF800104E
:1016F00041F48071CAF80010FFF70CFC804605E049
:10170000FFF708FCA0EB080064287DD8DAF8000099
:10171000C005F5D5DFF8608308F16808D8F8000047
:1017200010F440702AD0218E01F44071814225D0FE
:10173000D8F80010D8F8002021F4407142F480322B
:10174000C8F80020D8F8002022F48032C8F8002021
:10175000C8F80010D8F80000C0070FD0FFF7DAFB78
:10176000824607E0FFF7D6FBA0EB0A0141F2883082
:101770008142CAD8D8F800008007F3D5206BC0F3A7
:10178000012103297ED0D9F8001021F4F811C9F8FD
:101790000010228ED8F80010C2F30B021143C8F8D3
:1017A00000102078C00607D5286820F080702860D7
:1017B0002868A16B084328602188AF488830490415
:1017C00005D5626E016821F4403111430160218822
:1017D000090405D5A26E016821F44021114301607E
:1017E0002168C90305D5E26E016821F44011114357
:1017F00001602168890305D5226F016821F4400149
:1018000011430160217800E034E1490605D5626C9E
:10181000016821F00301114301602178090605D513
:10182000A26C016821F00C01114301602188C905F7
:1018300005D5E26C016821F0300111430160218877
:10184000890505D5226D016821F0C00111430160B1
:101850002188490505D5626D016821F44071114365
:1018600001602188090505D5A26D016821F4406158
:10187000114301602188C90407D5E26D016821F494
:10188000405100E05FE0114301602188890405D5E3
:10189000226E016821F44041114301602168490230
:1018A00005D5A26F016821F08061114301602168B4
:1018B0004FF0006A890209D5E26F016821F00061EA
:1018C00011430160E16F514500D1012721680A07EA
:1018D00000D50127490305D5626F016821F04071E9
:1018E000114301602168090206D5D4F880200168FF
:1018F00021F08051114301602168490106D5D4F8D7
:101900008420016821F0005111430160206800012A
:1019100006D5D4F88810286820F0007008432860A5
:101920002068C00006D5D4F88C10286820F08060AC
:1019300008432860DFF84891012E0ED02068B0F1EE
:10194000007F0AD08FE04F4AD9F80030104023F4CE
:10195000F8120243C9F800201BE7D9F800004E46F0
:1019600020F08060C9F80000FFF7D4FA804605E057
:10197000FFF7D0FAA0EB080064287BD8306800019C
:10198000F6D421783C487C30C90712D0616B81B90C
:10199000237A62680168D0F800C09201C1F3014166
:1019A00042EA0142CCF3036142EA016141EA037178
:1019B000016021680A0303D5E26BB2F5801F04D0F1
:1019C000C9021AD5216C594517D16368016894F88A
:1019D0000CC002689B01C1F3014143EA0141C2F31B
:1019E000027241EA0C6141EA027101602968626A8F
:1019F00021F01F01521E114329602168C90110D531
:101A0000238A62680168D0F800C09201C1F30361C3
:101A100042EA034242EA0162CCF3027142EA0171F6
:101A20000160216889010CD56168228A237B94F8C2
:101A300008C0890141EA024141EA036141EA0C71AF
:101A400001603168B04641F080613160FFF762FAB1
:101A5000064604E0FFF75EFA801B64280AD8D8F82F
:101A600000000001F6D5E7B3D9F800004E4620F09B
:101A7000805009E07BE00000083802400070004020
:101A800000380240FFFCFF0FC9F80000FFF742FAE0
:101A9000074604E0FFF73EFAC01B642867D83068A9
:101AA000C0438000F6D5216835480A0301D5E26BB2
:101AB0001AB1C9021DD5216CD9B963690168277EA5
:101AC00002689B01C1F3014143EA0143C2F3027181
:101AD00043EA076242EA0171016029686FF0FF037F
:101AE00000E04BE0A26A21F4F85103EB022211431B
:101AF00029602168890212D5E16F51450FD1238CED
:101B00006269016807689201C1F3036142EA034216
:101B100042EA0162C7F3027142EA01710160217871
:101B2000090716D561690268D0F800C08B01277FCC
:101B3000C2F30362CCF3014143EA014141EA02618D
:101B400041EA077101602868E16A20F440300843E7
:101B50002860306840F080503060FFF7DBF90446C1
:101B600008E000BFFFF7D6F9001B642802D9032064
:101B7000BDE8F88F3068C0438000F3D40020F7E759
:101B8000883802402DE9F04705000F4663D0444EE7
:101B9000306800F00F00B84209D2306820F00F0022
:101BA00038433060306800F00F00B84253D12868E5
:101BB0003C4C810712D5400703D5206840F4E05023
:101BC00020602878000703D5206840F4604020603A
:101BD000A968206820F0F000084320602878C0073A
:101BE0002AD0304968680839012810D009680228CD
:101BF00010D0890700292EDA216821F00301014362
:101C00002160FFF787F9804641F288390DE00968C5
:101C10008903EFE78901EDE7FFF77CF9A0EB080105
:101C2000494502D90320BDE8F0876868216801F0C2
:101C30000C01B1EB800FEFD1306800F00F00B8421B
:101C40000BD9306820F00F0038433060306800F066
:101C50000F00B84201D00120E5E72878400705D5FC
:101C6000E968206820F4E0500843206028780007E5
:101C700006D52869216821F4604141EAC00020604E
:101C800000F03CF82168084AC1F30311515CC840D8
:101C9000064908600020FFF75FFB0020C3E7000053
:101CA000003C024008380240FC38000814000020C4
:101CB00001480068704700001400002004490548EE
:101CC00009680068044AC1F38221515CC84070472A
:101CD00008380240140000200C3900080449054867
:101CE00009680068044AC1F34231515CC84070473A
:101CF00008380240140000200C390008154910B5BE
:101D00001548096811F00C0213D04110042A0FD0B5
:101D1000082A0ED10F4C241F2268236802F03F02CC
:101D20005B0207D52068C0F38810A0FB010106E024
:101D3000084610BD2168C1F38811A1FB00010023F2
:101D4000FEF776FA2168C1F30141491C4900B0FB56
:101D5000F1F010BD083802400024F4002DE9F84FDE
:101D600005004FF000076ED02878DFF82093A9F126
:101D7000040AC007AAF104044CD0D9F80010484660
:101D8000C1F38101012908D00068C0F38100022855
:101D90000AD1DAF80000400206D52068800339D560
:101DA00068680028DFD035E06868B0F5803F0BD068
:101DB00010B1B0F5A02F11D0206820F48030206041
:101DC000206820F4802002E0206840F48030206009
:101DD000686890B1FFF79EF806460AE0206840F474
:101DE00080202060F0E700BFFFF794F8801B642894
:101DF00072D820688003F7D50CE0FFF78BF8064611
:101E000005E000BFFFF786F8801B6428F0D8206843
:101E10008003F7D42878800742D5D9F800104846C7
:101E200011F00C0F08D00068C0F3810002280BD11C
:101E3000DAF80000400207D42068800718D5E86867
:101E4000012800D114E01EE1E8680028206817D0BE
:101E500040F001002060FFF75DF8064605E000BF96
:101E6000FFF758F8801B0228C2D820688007F7D5F2
:101E70002869216821F0F80141EAC00020600FE0E4
:101E800020F001002060FFF745F8064605E000BF9E
:101E9000FFF740F8801B02281ED820688007F7D47F
:101EA0002878000729D5794869696C30002980466F
:101EB000016812D041F001010160FFF72BF80646DE
:101EC00005E000BFFFF726F8801B022804D8D8F8E9
:101ED00000008007F6D510E089E021F001010160E3
:101EE000FFF718F8064604E0FFF714F8801B0228F5
:101EF0007DD8D8F800008007F6D4287840076BD545
:101F0000DFF8888108F13808D8F80000C0000BD449
:101F1000D8F8001041F08051C8F80010D8F800003F
:101F2000012700F08050009059480168C90512D47B
:101F30000168834641F480710160FEF7EBFF0646BD
:101F400005E000BFFEF7E6FF801B64284FD8DBF8F2
:101F50000000C005F6D54D4EA868683601280AD0A5
:101F600008B1052811D0306820F0010030603068D9
:101F700020F0040002E0306840F001003060A86802
:101F8000A0B1FEF7C7FF83460CE0306840F00400C4
:101F90003060F0E7FEF7BEFFA0EB0B0141F28830A6
:101FA000814268D830688007F4D50EE0FEF7B2FFB2
:101FB000834607E0FEF7AEFFA0EB0B0141F288304D
:101FC000814258D830688007F4D42FB1D8F8001077
:101FD00021F08051C8F80010A869E0B3D9F80010CA
:101FE000C1F3810102294ED00228206800E042E0BE
:101FF00020F08070206003D0FEF78CFF05463DE0A6
:10200000FEF788FF064604E0FEF784FF801B0228E7
:1020100031D820688001F7D4D5E90921DFF874C0F0
:10202000D5E9070695F830304F0895F82C10304365
:102030000CEB074545EA8212104340EA016040EA92
:102040000370CAF80000206840F080702060FEF73E
:1020500061FF054605E014E0FEF75CFF401B022827
:1020600009D820688001F7D50BE000BFFEF752FFCA
:10207000401B022802D90320BDE8F88F20688001A8
:10208000F4D40020F8E70120F6E700000838024009
:10209000007000400000FFFF401EB0F1807F10B5CF
:1020A00001D3012010BD4FF0E02460610F216017C3
:1020B00000F0D8FE0020A0610721216110BD10B5FD
:1020C000040002D0606F10B107E0012010BD0020B5
:1020D00084F87000204600F025F82420606720680E
:1020E000016821F001010160204600F0E5FB0128B4
:1020F000ECD0606A10B1204600F05CFB20684168BB
:1021000021F4904141602068816821F02A018160BA
:102110002068016841F0010101602046BDE81040DF
:1021200000F0ACBB10B586B0044614216846FEF73B
:10213000C9F81249206888421ED11148016841F44B
:1021400080210160006800F4802005900C48103860
:10215000016841F00801016000680221002200F0DE
:1021600008000590032307244FF440708DE81F00FA
:1021700004486946FEF7D6FD06B010BD0048004091
:1021800040380240000C02402DE9F8430446406FFD
:102190001F4616460D4620284FD1CDB1C6B194F842
:1021A0007000012849D0012284F8702021214FF0CD
:1021B0000008C4F87C806167FEF7ACFE8146A06829
:1021C000A4F85060A4F85260B0F5805F03D004E03A
:1021D0000120BDE8F883206910B12E46002510E0EB
:1021E00000260EE08021204600F090FCB8B9C6B170
:1021F00016F8010B21688862B4F85200401EA4F85A
:102200005200B4F852004B464FF0000200970028ED
:10221000E8D14FF04001204600F078FC38B10320AF
:10222000D7E735F8020B2168C0F30800E3E7202167
:102230006167002084F87080CBE70220C9E7FEE7E1
:1022400001688A69D243920701D400228A62006839
:102250008169C943C90703D0816941F001018161E6
:10226000704700002DE9F0410446006890460E4694
:102270008069C043C00635D40025202720688069C6
:10228000C043800616D5701CF8D0FEF743FEA0EBC5
:102290000800B04201D8002EF0D1606C84F84050A4
:1022A00040F02000606484F8417084F842500120BE
:1022B000BDE8F08121681020C8612068C761204610
:1022C000FFF7BEFF2068084942680A404260606C20
:1022D00040F00400606484F8417084F8425084F84F
:1022E0004050E4E70020E3E700E800FE70B5006836
:1022F000C1F30901074E41EA0241049C4FF4806595
:102300004268194305EA54553543AA4321430A4319
:10231000426070BDFF63FF032DE9F0411D46174683
:102320000E460446DDF8188008E0681C06D0FEF76B
:10233000F1FDA0EB0800A8420BD855B120688069D8
:1023400036EA000013D00020B842EED00020BDE8ED
:10235000F081626C002084F84000202142F02002CD
:10236000626484F8411084F842000120EFE7012004
:10237000EAE700002DE9F0410025904620260F46AF
:10238000044626E0424639462046FFF76BFF80BBF5
:1023900020688069C043800614D420688169C943DD
:1023A000490701D4218DC9B91349C6612068426823
:1023B0000A404260656484F8416084F8425084F8C1
:1023C000405016E0FEF7A6FDA0EB0800B84208D882
:1023D0003FB120688069C0434007D3D40020BDE8E6
:1023E000F081606C84F8405040F02000606484F814
:1023F00041600120F3E7000000E800FE70B51646DA
:102400000D4604460DE0324629462046FFF72AFFD6
:1024100008B1012070BDFEF77DFD801BA84207D8E2
:1024200035B120688069C0438006ECD4002070BDBF
:10243000626C002084F84000202142F02002626497
:1024400084F8411084F84200E3E770B516460D4663
:1024500004460FE0324629462046FFF703FF08B145
:10246000012070BD681C05D0FEF754FD801BA842FA
:1024700007D835B120688069C0438007EAD40020BE
:1024800070BD626C002084F84000202142F02002E0
:10249000626484F8411084F84200E1E77CB5124898
:1024A0000125104C00218022E123C0E90045018272
:1024B00014048DF800108DF801206A468DF8023062
:1024C0008DF804108DF803108DF80510C0E9052172
:1024D000C0E90714FEF738FA002801D0FEF720FA09
:1024E0007CBD000000800240180000202DE9F04172
:1024F00086B014216846FDF7E5FE3348016841F0D7
:1025000004010160016801F004010591016841F0D6
:1025100080010160016801F080010591016841F0CE
:1025200001010160016801F001010591016841F0BC
:1025300002010160016801F002010591016841F0AA
:1025400008010160016801F008010591016841F08E
:1025500040010160006844F281061C4F002200F037
:102560004000314605903846FEF7CFFCDFF860802A
:10257000002240214046FEF7C8FC164900244FF4D3
:1025800000508DE8130014486946FEF7CBFB012587
:102590000096CDE90154694638460394FEF7C2FB24
:1025A00040200090CDE90154694640460394FEF76F
:1025B000B9FB80206946CDE9000440460294FEF74D
:1025C000B1FB06B0BDE8F0813038024000040240A3
:1025D00000180240000011100008024013480021BA
:1025E00010B5114C0123124A0460C0E90121C0E971
:1025F000033141618161C1610162FEF7E7FC08B10D
:10260000FEF78EF909480021FEF78AFC08B1FEF7B3
:1026100087F906480021FEF7AFFC002803D0BDE88B
:102620001040FEF77DB910BD00540040600000204E
:102630005D3E30200D48002110B50B4C0C224FF4AC
:1026400016530460C0E90131C160C0E90412816120
:10265000C16101624162FFF732FD002803D0BDE88D
:102660001040FEF75DB910BD00480040AC000020EE
:102670000D48002170B50222C0E9032101238261C7
:102680000624C0E9073141624FF0A045C0E90B3193
:10269000C0E90054FEF7DEFE002803D0BDE870401C
:1026A000FEF73EB970BD00002C010020FEE7704728
:1026B00070477047FEF73CBE30B5B7B0342124A850
:1026C000FDF700FE142131A8FDF7FCFD90216846BE
:1026D000FDF7F8FDFEF7B0FF1E48016841F080519C
:1026E0000160006800F0805036901B48016821F4BA
:1026F000404141F4804101600068012302259905B1
:1027000000F4404036900420CDE92A512CA96022E3
:102710004FF4A02481E825002F9024A8CDE924348B
:10272000FFF71CFBFEF752FFE80200240F21CDE962
:102730003340359431A8CDE931150321FFF722FA52
:102740000648199413941F9400906846FEF77CFF86
:1027500037B030BD403802400070004000412000DA
:10276000104A30B51048146800210F4B44F470042F
:102770001460083305680D4A0D4C45F001050560ED
:1027800019600368051D1340074A03600C322C6072
:102790000568E305034C25F480250560803C116045
:1027A000236030BD88ED00E000380240FFFFF6FEF8
:1027B0001030002490F82410C90706D00168836AFD
:1027C0004A6822F400321A434A6090F824108907BC
:1027D00006D50168C36A4A6822F480321A434A6007
:1027E00090F82410490706D50168036B4A6822F463
:1027F00080221A434A6090F82410090706D5016820
:10280000436B4A6822F400421A434A6090F824104D
:10281000C90606D50168836B8A6822F480521A4380
:102820008A6090F82410890606D50168C36B8A680F
:1028300022F400521A438A6090F82410490611D5F8
:102840000168036C4A6822F480121A434A60016CE2
:10285000B1F5801F06D10168436C4A6822F4C002BA
:102860001A434A6090F82410090606D50168826C64
:10287000486820F4002010434860704738B50025B0
:102880000446C567FEF746FB03462068006800075C
:102890000BD56FF07E400090002220464FF40011CF
:1028A00000F034F908B1032038BD2020606784F8B7
:1028B0007050A067002038BD2DE9F04104468068C3
:1028C000DFF818C2864F2368D4E90452E16928432F
:1028D0001E6800250A438349104306EA0C06064396
:1028E0001E604FF400422068E668436823F44053BA
:1028F000334343602368A669206AD3F808C0304395
:102900002CF4306606439E602068B8420AD10868FD
:1029100010F0030052D001287BD002287AD003287F
:102920006ED186E0704B98420AD1086810F00C0016
:1029300079D004287BD0082877D00C2860D178E0A3
:102940006A4B98420AD1086810F030006BD010280A
:102950006DD0202869D0302852D16AE0644B98426B
:102960000AD1086810F0C0005DD040285FD08028F0
:102970005BD0C02844D15CE05E4B98420DD1086822
:1029800010F440704FD0B0F5807F50D0B0F5007F8C
:102990004BD0B0F5407F33D14BE0574B98420FD12D
:1029A000086810F4406009D0B0F5806F3FD0B0F5F2
:1029B000006F3AD0B0F5406F22D13AE0012120E01B
:1029C0004E4B98420DD1086810F440502BD0B0F512
:1029D000805F2CD0B0F5005F27D0B0F5405F0FD1FD
:1029E00027E0474B98420BD1086810F440401AD0BA
:1029F000B0F5804F1BD0904217D0B0F5404F18D0A3
:102A00001021E0694FF6EF76904238D109295DD266
:102A100002E00CE009E006E0DFE801F00D102758C5
:102A20002A5858582D000021EBE70221E9E704213C
:102A3000E7E70821E5E7FFF741F901E0FFF74EF985
:102A40000146D4F80400490001EB5001B1FBF0F05D
:102A500080B2A0F11001B14238D84FF6F07321686E
:102A6000C0F342021840104324E026496068EBE7B7
:102A7000FFF744F9E4E760684FF48031E4E709299F
:102A800024D2DFE801F0050819231C2323231F00AB
:102A9000FFF714F901E0FFF721F90146D4F804002B
:102AA00001EB5001B1FBF0F080B2A0F11001B14296
:102AB0000CD82168C8600AE013496068F0E7FFF7A6
:102AC0001DF9EAE7606802EB5001EBE70125002001
:102AD000206660662846BDE8F0810000F369FFEFDC
:102AE000001001409038024000440040004800407F
:102AF000004C0040005000400014014000780040AD
:102B0000007C00400048E8010024F4002DE9F04179
:102B1000984617460E460446069D08E0681C06D0F7
:102B2000FEF7F8F9A0EB0800A8420BD855B12068D1
:102B3000C06936EA000017D00020B842EED000206D
:102B4000BDE8F0812168202000220B6823F4D073B7
:102B50000B6021688B6823F001038B606067A067BE
:102B6000032084F87020EBE70120E6E770B5044607
:102B70000698049D0D99012815D0E06840F04000AA
:102B8000E060204600F028F8A16B41F48031A16399
:102B9000012D07D1A16841F00601A160A16841F0B3
:102BA0002001A16070BDA06B01290A4A20F4803089
:102BB000A063E06800EA0200E060E06820F44010F2
:102BC000E06003D1E06840F48010E060204600F04F
:102BD00003F8DDE7BFFFBDFF0C49012202E0521CF4
:102BE0008A420BD80369002BF9DA0369012243F00A
:102BF0000103036104E0521C8A4201D9032070479B
:102C00000369DB07F7D1002070470000400D030087
:102C100010B5D0F8041841F00201C0F804180320E0
:102C2000FDF780FE002010BD2DE9F04F0E46044652
:102C30000021DDE90B2BDDF840800D46099F084699
:102C400004EB800CCCF80411401C0F28F8D320466C
:102C5000A06BB8F1000F15D040F4001CC4F838C0C8
:102C600089460846C4F8000E2046D4F80018012A08
:102C7000C4F8001834D0032A32D0D0F8001841F03C
:102C8000030111E020F4001CC4F838C0206840F0B3
:102C9000400CC4F800C0206840F0800CC4F800C0AC
:102CA000DEE700BF41F00101C0F80018102100F07C
:102CB0009BF800B10125204600F086F800B10125FF
:102CC00048464FF0006C4FF67F334FF0904AC4F8FF
:102CD0001098C4F81498C4F81C980021994619E07B
:102CE000D0F80018002BDFD0DCE700BF04EB411266
:102CF000D2F80039002B06DA11B1C2F800A904E0BD
:102D0000C4F800C901E0C2F80009C2F81009C2F80D
:102D10000899491C8E42E9D8002113E004EB4112C6
:102D2000D2F8003B002B06DA11B1C2F800AB04E088
:102D3000C4F800CB01E0C2F8000BC2F8100BC2F8D7
:102D4000089B491C8E42E9D8D4F81018012F21F4B1
:102D500080722146C4F8102808D1144B144AC1F8D7
:102D60003038D1F830181143C4F830186FF0804172
:102D7000A06161611FB9A06940F01000A061A06965
:102D8000BBF1000F0B4A40EA0200A06103D0A0692A
:102D900040F00800A061B8F1010F03D1A069064915
:102DA0000843A0612846BDE8F08F000000018000C4
:102DB0000300010000383C8004000040816821F0DD
:102DC0000101816000207047064A10210161002145
:102DD000491C914201D9032070470369DB06F7D4EF
:102DE00000207047400D03002023074A43EA811367
:102DF00003610021491C914201D9032070470369F6
:102E00009B06F7D400207047400D030010B5C26840
:102E1000012922F0C042C26002D029B1012010BDB8
:102E2000C16841F0005102E0C16841F08041C160D9
:102E30003220FDF777FD002010BDFEE70FB4084BF0
:102E400010B504A902AA039800F0EEF8044602A9FE
:102E5000002000F080FC204610BC5DF814FB000050
:102E600057370008090700284FEA116104DB00F119
:102E7000E02080F80014704700F00F0000F1E0201F
:102E800080F8141D704702E008C8121F08C1002A0C
:102E9000FAD170477047002001E001C1121F002ADB
:102EA000FBD170472DE9FF5F82B00021DDE90430DE
:102EB000020DDDF840B0034318D044F61050A2F2E2
:102EC000FF3242431514119801281FD0A5EB0B00C7
:102ED000401C5FEA000A4FF000064E4FDFF83891C1
:102EE000B046504615D5CAF1000413E011980124EC
:102EF0004AA3012801D16FEA0B010298119AC0E997
:102F00000031C0E9024206B0BDE8F09FCBF10000FD
:102F1000DFE704460021404A491842EB0450CDE95E
:102F2000001012E0E00707D032463B4640464946D3
:102F3000FDF7B6FA8046894632463B4610461946AA
:102F4000FDF7AEFA06460F466410002CEAD1DDE923
:102F50000401DDE90023BAF1000F06DAFDF7A0FA5B
:102F600042464B46FDF79CFA05E0FDF70BFB424657
:102F70004B46FDF707FB04460E460022284BFDF7A3
:102F800089FB03D84FF0FF30014607E00022254BB4
:102F900020463146FDF7DDF9FDF763FB102409E01B
:102FA000002C0ADB0A220023FDF742F9039B303292
:102FB0001A55641E50EA0102F2D1641C039AC4F14E
:102FC00011031444119A012A03D0012208430DD1A0
:102FD0000AE0084304D000204FF0110B119072E773
:102FE000A3EB0B056D1E0DE05B4504DD4FF0000209
:102FF00005F1010504E003DA4FF00002A5F1010537
:10300000002AECD002981199C0E90231C0E90045CC
:1030100079E70000000014400000F03F300000009D
:103020000000F0430000E03F2DE9FF4F95B09B46C4
:103030008946064600250FE2252877D10024274639
:10304000F84A0121059400E0044316F8013F203BB3
:1030500001FA03F01042F7D130782A2811D06FF02E
:103060002F033078A0F13002092A16D8059A44F0CF
:10307000020402EB820203EB42021044761C05902C
:10308000EFE759F8042B0592002A03DA504244F482
:103090000054059044F00204761C30782E2816D196
:1030A00016F8010F44F004042A280DD06FF02F0207
:1030B0003078A0F13003092B09D807EB870302EB26
:1030C0004303C718761CF3E759F8047B761C307865
:1030D0006C280FD006DC4C2817D068280DD06A2841
:1030E00014D104E0742810D07A280FD10DE044F4F4
:1030F00000140AE044F4801401E044F440147278AF
:10310000824202D104F58014761C761C3078662841
:103110000BD013DC582877D009DC002875D045285F
:10312000F6D04628F4D047281AD19DE118E063284C
:1031300035D0642879D0652812D195E1702873D0F4
:1031400008DC6728F1D069286FD06E280DD06F2871
:1031500006D1B5E073282CD0752875D0782874D0A6
:103160005A46179990476D1C75E1C4F30250022826
:1031700009D003280DD0D9F8001004280DD00D6017
:1031800009F1040967E1D9F80010EA17C1E9005212
:10319000F6E7D9F800100D80F2E70D70F0E719F8A6
:1031A000041B8DF8001000208DF80100EA46012074
:1031B00003E059F804AB4FF0FF3061074FF0000116
:1031C00002D40DE008F101018846B9420FDA8045CA
:1031D000F8DB1AF808100029F4D108E008F1010121
:1031E00088468142FADB1AF808100029F6D10598C2
:1031F0005B46A0EB080721463846179A00F094FA80
:10320000284400EB080507E04DE029E10DE01AF83D
:10321000010B5A4617999047B8F10108F7D25B465F
:1032200021463846179A13E142E00A220092C4F37D
:1032300002524FF0000A022A08D059F804CB032AA0
:103240004FEAEC710AD00DE029E02AE009F107010C
:1032500021F00702F2E802C1914609E00FFA8CFC66
:103260004FEAEC71042A03D14FFA8CFC4FEAEC715F
:10327000002907DA0A460021DCF1000C61EB0201AB
:103280002D2202E0220504D52B228DF804200122F4
:1032900003E0E20701D02022F7E7904659E00A2137
:1032A00002E010220DE010214FF0000A00910BE027
:1032B00010224FF0000A44F004040827009203E0B3
:1032C00008224FF0000A0092C4F30252022A05D0ED
:1032D00059F804CB0021032A08D009E009F10701BD
:1032E00021F00702F2E802C1914605E01FFA8CFCCA
:1032F000042A01D10CF0FF0C4FF00008220728D55A
:10330000702806D0009B83F0100353EA0A0305D00F
:103310000EE040228DF80420012208E05CEA010260
:1033200006D030228DF804208DF805000222904648
:10333000009B83F0080353EA0A030AD15CEA010206
:1033400001D1620705D530228DF804204FF0010825
:103350007F1E582804D034A003900EA802900DE0E0
:1033600036A0F9E753466046009AFCF761FF8446B1
:103370000398825C0298401E029002705CEA010091
:10338000F0D1029806A9081A00F1200A600702D5B8
:1033900024F4803400E00127574502DDA7EB0A0042
:1033A00000E0002000EB0A01009005984144401A1B
:1033B0000590E00306D45B462146179A059800F075
:1033C000B3F90544002706E001A85A46C05D1799E5
:1033D00090476D1C7F1C4745F6DBE0030CD55B4630
:1033E0002146179A059800F09FF9054404E0302023
:1033F0005A46179990476D1C0099481E0090002965
:10340000F5DC08E0029802995A460078491C0291BE
:10341000179990476D1CBAF10001AAF1010AF1DC7D
:1034200065E1000009280100303132333435363788
:103430003839616263646566000000003031323300
:1034400034353637383941424344454600000000A0
:1034500000F058F90544761C307800287FF4ECAD74
:1034600019B02846BDE8F08F620700D4062709F19D
:10347000070222F0070CFCE80223E14603F00048B3
:103480005FEA080C02D00FF2702C0DE05FEA045CDA
:1034900002D50FF2682C07E05FEAC47C02D00FF27D
:1034A000602C01E0AFF2700C4FF0FF3823F00043C6
:1034B000CDF850C065280CD006DC452809D0462838
:1034C0001DD047283DD13DE0662818D067287ED121
:1034D00038E00021112F01DB112000E0781CCDE93C
:1034E000000106A90EA8FFF7DDFCDDE90F010E9A29
:1034F00003910021009207F1010A04914DE04FF081
:1035000000400097CDE9011006A90EA8FFF7CAFCFC
:10351000DDE90F0203920E9B11990022DDF80CA049
:103520000093049211B9791C00EB010AB7EB0A0071
:1035300004D4C0F1FF3007F1010A0490AAEB0700A0
:10354000019044E0012F00DA01270021112F01DD55
:10355000112000E03846CDE9000106A90EA8FFF7CA
:10356000A1FCDDE90F010E9A039100210491009264
:10357000BA4621070CD40399514500DA8A46BAF1BC
:10358000010F05DD009AAAF10101515C302908D034
:10359000B84202DA10F1040F06DA0121CDE9011078
:1035A00015E0AAF10101E9E7002805DC04990144CE
:1035B0000491AAEB000102E0411C514500DD8A465E
:1035C0000499401A401C01904FF0004002902007DF
:1035D00004D40198504501DBCDF8048000208DF81B
:1035E0004F0002980DF14F07B0F1004F25D02B206E
:1035F0000E9002984FF0020800280CDA4042029028
:103600002D200E9007E00A210298FCF76DFE303164
:10361000029007F8011DB8F10001A8F10108F2DCE1
:1036200002980028EFD1791E0E980870307800F0CB
:10363000200040F0450007F8020D12A8C01B00F161
:1036400007081498007800B1012000EB0A010198E6
:1036500001EBE07105984144401A401E0590E003DB
:1036600006D45B462146179A059800F05DF805449C
:103670001498007818B15A46179990476D1CE003CA
:1036800024D55B462146179A059800F04DF805446D
:103690001CE00498002807DBDDE90301884203DD14
:1036A0000098405C179901E0179930205A469047DE
:1036B000049805F10105401C04900198401E0190FA
:1036C00004D12E205A46179990476D1CBAF100017B
:1036D000AAF1010ADDDC05E017F8010B5A4617993B
:1036E00090476D1CB8F10001A8F10108F4DC5B46BD
:1036F0002146179A0598ABE62D0000002B0000002C
:10370000200000002DE9F041044600251E46174622
:10371000880404D405E039462020B0476D1C641E9F
:10372000F9D52846BDE8F0812DE9F0410446002591
:103730001E469046C80301D5302700E020278804A4
:1037400004D505E041463846B0476D1C641EF9D5E6
:103750002846BDE8F0810A68531C0B601070704762
:103760009EB0FDF7EDFDFEF7A7FFFEF7BFFEFEF7EB
:1037700095FEFEF733FFFEF75DFFFEF779FF48A1E8
:1037800002A8FFF75BFB02A8FCF7A7FD82B24D4839
:10379000C82302A9FEF7F8FC03228DF87420494ED5
:1037A0000020494C04218DF875008DF8761000BF7B
:1037B00094ED000A45A102A8B7EEC00A8DED000BFA
:1037C00094ED010AB7EEC00A53EC102BFFF736FB5D
:1037D0003068C169C9434906FBD402A8FCF77DFDE6
:1037E00082B23848C82302A9FEF7CEFC41F28830E5
:1037F000FDF798F83F480121FDF780FB3E48C825BA
:1038000003230095B8211DAAFDF7CEFC3A480323F7
:10381000B82100951DAAFDF7C7FC0120FDF782F82D
:1038200035480823B82100951BAAFDF72BFC9DF80D
:1038300073009DF8721001EB002085B206211BA8D1
:10384000FCF7C2FFA842B3D19DF870009DF871103B
:1038500000F07F03020601EB032001EE100AB2EE36
:10386000040B002AB8EE411B81EE002BB7EEC21B01
:10387000F1EE411A21FE211A84ED011A9DF86E1015
:103880009DF86F0000EB012080B201EE100AB8EE47
:10389000411B81EE002BB7EEC20B84ED000A87E7D7
:1038A0000A0D414D32333230204932432044454DD8
:1038B0004F205374617274696E67202E202E202E63
:1038C0000A0D0000AC0000200000002054656D705F
:1038D00065726174757265203D2025342E3166094C
:1038E00048756D6964697479203D2025342E3166F0
:1038F0000A0D0000000402406000002000000000EB
:10390000000000000102030406070809000000008F
:1039100001020304343900080000002018000000F0
:10392000862E00084C3900081800002018090000F5
:10393000962E0008000000000000000001000000BA
:0C39400010000000000000000024F40053
:04000005080001F9F5
:00000001FF
