:020000040800F2
:10000000D80400200D020008FF1C0008FF1B000898
:10001000FD1C0008DD0800089D210008000000000C
:10002000000000000000000000000000031D0008A8
:100030005109000800000000011D0008051D00080E
:1000400027020008270200082702000827020008EC
:1000500027020008270200082702000827020008DC
:1000600027020008270200082702000827020008CC
:1000700027020008270200082702000827020008BC
:1000800027020008270200082702000827020008AC
:10009000270200082702000827020008270200089C
:1000A000270200082702000827020008270200088C
:1000B000270200082702000827020008270200087C
:1000C000270200082702000827020008270200086C
:1000D000270200082702000827020008270200085C
:1000E000270200082702000827020008270200084C
:1000F000270200082702000827020008270200083C
:10010000270200082702000827020008270200082B
:10011000270200082702000827020008270200081B
:10012000270200082702000827020008270200080B
:1001300027020008270200082702000827020008FB
:1001400027020008270200082702000827020008EB
:1001500027020008270200082702000827020008DB
:1001600027020008270200082702000827020008CB
:1001700027020008270200082702000800000000EC
:1001800027020008270200082702000827020008AB
:10019000270200082702000827020008270200089B
:1001A000270200082702000827020008270200088B
:1001B000270200082702000827020008270200087B
:1001C000270200082702000800000000270200089C
:1001D000270200082702000827020008270200085B
:1001E000270200082702000827020008270200084B
:1001F0002702000827020008DFF80CD000F050FAB0
:1002000000480047C52A0008D80400200648804757
:1002100006480047FEE7FEE7FEE7FEE7FEE7FEE7EB
:10022000FEE7FEE7FEE7FEE7911D0008F901000882
:100230002DE9F05F0546002092469B46884606461B
:10024000814640241BE0284641464746224600F0AE
:100250005EF853465A46C01A914110D311461846CB
:10026000224600F045F82D1A67EB01084F4622465A
:100270000120002100F03CF817EB00094E41201E40
:10028000A4F10104DFDC484631462A464346BDE876
:10029000F09FD2B201E000F8012B491EFBD270475B
:1002A0000022F6E710B513460A4604461946FFF742
:1002B000F0FF204610BD421C10F8011B0029FBD1A5
:1002C000801A704730B50B460146002020220124D9
:1002D00009E021FA02F59D4205D303FA02F5491B14
:1002E00004FA02F52844151EA2F10102F1DC30BD2A
:1002F000202A04DB203A00FA02F1002070479140E6
:10030000C2F1200320FA03F3194390407047202ADA
:1003100004DB203A21FA02F00021704721FA02F3AF
:10032000D040C2F1200291400843194670472DE9A0
:10033000FE4F804681EA0300C00F0C46009021F07A
:10034000004123F00045B8EB0200A94105D2404628
:10035000214690461C460B46024623F000401043BF
:1003600047D0270DC7F30A00C3F30A510290401A81
:10037000019040286BDAC3F3130040F4801B00980F
:10038000924620B10023D2EB030A63EB0B0B0198DA
:100390005946C0F140025046FFF7AAFF06460D46F7
:1003A00050465946019A00F08DF910EB0800614162
:1003B000002487EA115284EAE7731A4340D0009A76
:1003C00062B3019A012A4FEA075215DC001B61EB68
:1003D00002014FF0004202EA0752CDE90042001C40
:1003E00041F5801132462B4600F08DF903B0BDE88F
:1003F000F08F40462146F9E7001B61EB0201001C2B
:1004000041F5801300185B412018A2F5001747EB57
:10041000030140EAD570B6196D4111E06D084FEA4D
:10042000360645EAC0754FEA0752001B61EB020130
:10043000001C41F5801149084FEA30000019514174
:1004400032462B4603B0BDE8F04F00F04DB900989E
:10045000012240000023D0EB020263EBE07300981E
:1004600021464FEAE074B8EB000061EB0401E9E7D4
:1004700083F000435BE781F0004158E72DE9FE4F30
:1004800081EA030404F0004421F0004100944FF09D
:10049000000B23F0004350EA01045ED052EA03044B
:1004A0005BD0C3F30A54C1F30A552C44A4F2F334CD
:1004B0000194A0FB0254C1F3130141F48011C3F372
:1004C000130343F4801301FB024400FB034E840A30
:1004D000970A44EA815447EA8357A4FB07680295C8
:1004E0008D0A05FB07854FEA932C04FB0C54270566
:1004F000029D4FEA065847EA1637B5EB08056EEB42
:10050000070C870E920E47EA811742EA8312A7FB77
:100510000201B6EB0B0164EB00042B0D43EA0C3334
:100520005E1844EB1C50DA465146E7FB0201C5F366
:1005300013044FEA0B3343EA14534FEA0432019C8D
:1005400043EA0603A4F10C040294009CCDE900B434
:1005500000F0D9F803B0BDE8F08F00200146F9E7BC
:100560002DE9F04D81EA030404F0004B21F0004531
:1005700014464FF0000A23F0004150EA050220D053
:1005800054EA01021DD0C5F30A570246C5F313030E
:10059000C1F31300C1F30A5640F4801543F48013ED
:1005A000A7EB0608101BD64608F2FD3873EB0500D2
:1005B00002D308F1010801E092185B41B8F1000F85
:1005C00003DA00200146BDE8F08D00204FF48011D1
:1005D000064684460EE0171B73EB050705D3121B76
:1005E00063EB050306434CEA010C49084FEA30006F
:1005F00092185B4150EA0107EDD152EA030012D094
:1006000082EA040083EA0501084305D0101BAB41D0
:1006100006D20122002306E000224FF0004302E050
:100620006FF0010253101AEB06004CEB085110EB6F
:100630000A0041EB0B01BDE8F04D00F055B8C1F3E5
:100640000A52C1F3130140F2FF3341F480119A4280
:1006500002DA00200146704740F233439A42A2F288
:10066000334202DC5242FFF752BEFFF741BE0000A8
:1006700030B5041E71F1000404DB4FF00044404229
:1006800064EB0101141E73F1000405DB1C464FF0FE
:100690000043524263EB0403994208BF904230BDCD
:1006A000064C074D06E0E06840F0010394E80700BF
:1006B00098471034AC42F6D3FFF7A2FDF42D0008A2
:1006C000142E0008202A06DBCB17203A41FA02F04C
:1006D00043EAE07306E041FA02F3D040C2F120029F
:1006E000914008431946704710B5141E73F1000479
:1006F00008DA401C41F1000192185B411A4301D114
:1007000020F0010010BD2DE9F04D92469B4611B13D
:10071000B1FA81F202E0B0FA80F220329046FFF79F
:10072000E7FD04460F4640EA0A0041EA0B01534642
:100730005A46084313D0114653EA010019D0C8F1B4
:1007400040025046FFF7E3FD05460E465046594627
:100750004246FFF7CDFD084305D0012004E02046C6
:100760003946BDE8F08D0020054346EAE0762C438B
:1007700037430A986305E40AA0EB08000022FD0A4B
:1007800044EA47540A3002D500200146E9E7010552
:1007900010196941DDE9084500196941BDE8F04DCE
:1007A000A2E700004A496FF0706210B5D1F8043337
:1007B00023F44033C1F80433D1F8043344682343AD
:1007C000C1F8043301684B6823F480734B600168FF
:1007D00003694C6844EA03234B6001684B6823F0CB
:1007E00040734B60016884684B6823434B60016829
:1007F0008B6823F400638B600168C4688B682343B3
:100800008B60816AD14201688A6822F070628A60D6
:1008100001680DD0836A8A681A438A6001688A6811
:1008200022F040528A600168C36A8A681A4302E073
:100830008A6822F040528A6001688A6822F00202C7
:100840008A60016882698B6843EA42028A6090F894
:1008500020100029016811D01E4A4B6843F4006340
:100860004B6001684B6823F460434B600168446A45
:100870004B6802EB443213434B6003E04A6822F4B6
:1008800000624A600168144BCA6A22F47002CA62AC
:100890000168848BCA6A03EB04531A43CA62016875
:1008A0008A6822F400728A60016890F830208B68B0
:1008B00043EA42228A6001688A6822F480628A6080
:1008C000016840698A6842EA8020886010BD0000A3
:1008D0000020014000E0FFFF0000F0FFFEE7000005
:1008E0000E490F480A6822F080720A600B680022E5
:1008F00043F080730B60016821F001010160016821
:1009000041F001010160426000BF00BF00BF4068CC
:1009100008B100207047012070470000FCED00E0A6
:10092000001000E031B5084D6C6800F09FFE0749EB
:10093000B0FBF1F000994843009068680099001BF3
:100940008842FAD338BD0000001000E040420F009A
:1009500070477047F8B50025009590F83C20012AB3
:1009600018D0012280F83C200A6807234E4C066804
:10097000092A1AD90A3A02EB4207F268BB409A43A5
:10098000F2600E680268A64206D10B7AD66846EA83
:10099000036308E00220F8BD0A3E8B68D76806EBC7
:1009A0004606B3403B43D3600EE002EB4207326998
:1009B000BB409A43326103680E788A681F6906EB70
:1009C0004606B2403A431A614A681F23072A13D2E7
:1009D0000668521E02EB8207726BBB409A43726339
:1009E00003680E790A88761E5F6B92B206EB860664
:1009F000B2403A435A6327E006680D2A12D2D21F4A
:100A000002EB8207326BBB409A43326302680E7975
:100A10000B88F61F176B9BB206EB8606B3403B4371
:100A2000136311E00D3A02EB8207F26ABB409A436E
:100A3000F26202680E790B880D3ED76A9BB206EB14
:100A40008606B3403B43D362184A0368934208D1F9
:100A50000B68122B05D1D2F8043343F48003C2F89B
:100A60000433036893421AD10B68A34201D0112BBF
:100A700015D1D2F8043343F40003C2F804330968F3
:100A8000A1420CD10A490B4A0968B1FBF2F101EB12
:100A90008101490000E0491E00910029FBD180F846
:100AA0003C500020F8BD0000120000100020014062
:100AB0000C00002040420F000068C06C704770B509
:100AC00004004FF0000503D0206C002610B107E0B1
:100AD000012070BD204600F01DF8666484F83C607B
:100AE000206CC00610D4206C20F4885040F0020026
:100AF00020642046FFF756FE6664206C20F002005A
:100B000040F00100206400E0012584F83C602846A4
:100B100070BD000010B586B0044614216846FFF78A
:100B2000BFFB1149206888421BD11048016841F47D
:100B300080710160006800F4807005900B481438E3
:100B4000016841F00401016000680321002200F007
:100B50000400059001208DE807000548694600F073
:100B6000DBF806B010BD0000002001404438024010
:100B7000000802402DE9F041044600680D460027B8
:100B8000816849050BD58068C00508D5206C84F8BC
:100B90003C7040F0200020640120BDE8F08100F0AE
:100BA000ADF906460FE0681C0DD025B100F0A6F99E
:100BB000801BA84207D9206C84F83C7040F00400E8
:100BC00020640320E9E7206800688007EBD52168EE
:100BD0006FF012000860206C40F400702064206800
:100BE000816811F0405F13D1A16989B9C16A11F41C
:100BF000700F02D0806840050AD4206C20F4807009
:100C00002064206CC00403D4206C40F001002064F8
:100C10000020C2E718B50022009290F83C1001298C
:100C200007D0012180F83C1001688B68DB0702D0F7
:100C300011E0022018BD8C682A4B44F001048C603E
:100C400029490968B1FBF3F101EB410100E0491EBC
:100C500000910029FBD103689968C90740D0016C55
:100C600040F20164A14341F480710164596849056F
:100C700005D5016C21F4005141F480510164016CEF
:100C8000C90404D5416C21F00601416400E04264CE
:100C90006FF02204154980F83C201C60D1F8042331
:100CA000D20607D002688A420AD1936813F0405FE7
:100CB00002D005E000680BE0936843F08043936046
:100CC000D1F80413C9060BD400680949884207D13A
:100CD000816811F0405F03D1816841F080418160FB
:100CE000002018BD40420F000C00002000200140F1
:100CF0000022014070B5044600F000F90546601C72
:100D000002D004480078044400F0F8F8401BA042E8
:100D1000FAD370BD000000202DE9F84FDFF89CE108
:100D200000224FF001084FF0030B4FF00F0A00BFF5
:100D30000B6808FA02F42340A34271D14D68022DDA
:100D400001D0122D0FD1D5080E69570700EB85058C
:100D5000A9462D6AFF0E0AFA07FCBE4025EA0C05DB
:100D60002E43C9F820600F79550006680BFA05FC80
:100D700007F0030726EA0C06AF40374307604E68CA
:100D8000012E05D0022E03D0112E01D0122E0ED12D
:100D90008668CF6826EA0C06AF403743876046680E
:100DA0000F79A643C7F30017974037434760C468DD
:100DB0008E6824EA0C04AE402643C6604C68E4000A
:100DC00075D53F4C256845F480452560246822F0A0
:100DD0000306950704F4804400943A4C2D0F2644F2
:100DE000D6F80848DFF8E0C00AFA05F7604524EABB
:100DF000070401D100272EE0344FB84201D101276A
:100E000029E0334FB84201D1022724E0314FB842E4
:100E100001D103271FE0304FB84202D104271AE066
:100E200045E02E4FB84201D1052714E02C4FB842BF
:100E300001D106270FE02B4FB84201D107270AE066
:100E4000294FB84201D1082705E0284FB84201D107
:100E5000092700E00A27AF4027437546C6F80878FF
:100E60004E68DEF80040F60324EA030400D51C4374
:100E7000124E2C60361D4D683468AD0324EA03041D
:100E800000D51C430D4F346008374D683C68ED02B7
:100E900024EA030400D51C43084D3C600C354E6821
:100EA0002C68B60224EA030400D51C432C60521CB3
:100EB000102AFFF43DAFBDE8F88F0000003C014070
:100EC000443802400030014000000240000402406B
:100ED00000080240000C02400010024000140240D2
:100EE00000180240001C0240002002400024024082
:100EF0000AB1816170470904FBE70000014880687E
:100F00007047000000000020024881680278114408
:100F10008160704700000020032010B500F060F8E9
:100F2000002000F005F800F023F8002010BD0000BC
:100F300070B50D4D04464FF47A700C4A297812684A
:100F4000B0FBF1F0B2FBF0F000F086FD48B9102CD8
:100F500007D200222146501E00F022F800206C60CB
:100F600070BD012070BD0000000000200C000020BA
:100F70000A4808B5016841F080510160006800F03E
:100F8000805000900548001D016841F480410160D7
:100F9000006800F48040009008BD00004038024026
:100FA0000E4BF0B41B680D46C3F30223C3F10706D2
:100FB000042E00D90426191D072901D2002300E0C0
:100FC000DB1E012404FA06F19C40491E2940641EE0
:100FD000994014402143F0BC01F0F6B80CED00E05C
:100FE000064900F0070210B54FF6FF040868044BED
:100FF000204040EA02201843086010BD0CED00E0DC
:101000000000FA052DE9F84F04460078DFF8249433
:101010004FF000063746C0070ED0D9F8001021F473
:101020000001C9F80010D9F80010626B1143C9F82B
:101030000010606B00B90126FE4D20688435000366
:101040000ED5E16B286820F4401008432860E06B5F
:10105000B0F5801F01D010B102E0012600E00127A9
:1010600020684FF4800BC0020CD5216C286820F456
:10107000400008432860206C584501D1012601E05A
:1010800000B901272068C10100D50126800666D578
:10109000E8483830016841F0805101600068DFF8AD
:1010A00098A300F080500090DAF8001041F48071AD
:1010B000CAF80010FFF722FF804605E0FFF71EFF89
:1010C000A0EB080064287DD8DAF80000C005F5D54B
:1010D000DFF8608308F16808D8F8000010F4407069
:1010E0002AD0218E01F44071814225D0D8F8001019
:1010F000D8F8002021F4407142F48032C8F8002072
:10110000D8F8002022F48032C8F80020C8F8001077
:10111000D8F80000C0070FD0FFF7F0FE824607E0C6
:10112000FFF7ECFEA0EB0A0141F288308142CAD8F9
:10113000D8F800008007F3D5206BC0F30121032904
:101140007ED0D9F8001021F4F811C9F80010228ED1
:10115000D8F80010C2F30B021143C8F80010207831
:10116000C00607D5286820F0807028602868A16B29
:10117000084328602188AF488830490405D5626E4D
:10118000016821F44031114301602188090405D52B
:10119000A26E016821F44021114301602168C90356
:1011A00005D5E26E016821F4401111430160216808
:1011B000890305D5226F016821F4400111430160C4
:1011C000217800E034E1490605D5626C016821F020
:1011D0000301114301602178090605D5A26C01685D
:1011E00021F00C01114301602188C90505D5E26C8D
:1011F000016821F03001114301602188890505D57E
:10120000226D016821F0C001114301602188490568
:1012100005D5626D016821F4407111430160218898
:10122000090505D5A26D016821F4406111430160F3
:101230002188C90407D5E26D016821F4405100E01E
:101240005FE0114301602188890405D5226E0168A1
:1012500021F44041114301602168490205D5A26F84
:10126000016821F080611143016021684FF0006A3C
:10127000890209D5E26F016821F000611143016024
:10128000E16F514500D1012721680A0700D50127E8
:10129000490305D5626F016821F040711143016077
:1012A0002168090206D5D4F88020016821F0805118
:1012B000114301602168490106D5D4F884200168F2
:1012C00021F00051114301602068000106D5D4F8D7
:1012D0008810286820F00070084328602068C0004B
:1012E00006D5D4F88C10286820F080600843286068
:1012F000DFF84891012E0ED02068B0F1007F0AD0AF
:101300008FE04F4AD9F80030104023F4F81202431E
:10131000C9F800201BE7D9F800004E4620F0806095
:10132000C9F80000FFF7EAFD804605E0FFF7E6FD9B
:10133000A0EB080064287BD830680001F6D421783F
:101340003C487C30C90712D0616B81B9237A62684E
:101350000168D0F800C09201C1F3014142EA0142A4
:10136000CCF3036142EA016141EA03710160216843
:101370000A0303D5E26BB2F5801F04D0C9021AD567
:10138000216C594517D16368016894F80CC0026854
:101390009B01C1F3014143EA0141C2F3027241EAF8
:1013A0000C6141EA027101602968626A21F01F0143
:1013B000521E114329602168C90110D5238A626831
:1013C0000168D0F800C09201C1F3036142EA034210
:1013D00042EA0162CCF3027142EA017101602168C4
:1013E00089010CD56168228A237B94F808C08901A1
:1013F00041EA024141EA036141EA0C71016031684E
:10140000B04641F080613160FFF778FD064604E0A8
:10141000FFF774FD801B64280AD8D8F8000000018B
:10142000F6D5E7B3D9F800004E4620F0805009E029
:101430007BE00000083802400070004000380240A5
:10144000FFFCFF0FC9F80000FFF758FD074604E056
:10145000FFF754FDC01B642867D83068C043800084
:10146000F6D5216835480A0301D5E26B1AB1C902E5
:101470001DD5216CD9B963690168277E02689B017B
:10148000C1F3014143EA0143C2F3027143EA076237
:1014900042EA0171016029686FF0FF0300E04BE050
:1014A000A26A21F4F85103EB02221143296021685A
:1014B000890212D5E16F51450FD1238C6269016811
:1014C00007689201C1F3036142EA034242EA016202
:1014D000C7F3027142EA017101602178090716D54C
:1014E00061690268D0F800C08B01277FC2F30362F4
:1014F000CCF3014143EA014141EA026141EA07714B
:1015000001602868E16A20F44030084328603068B0
:1015100040F080503060FFF7F1FC044608E000BF67
:10152000FFF7ECFC001B642802D90320BDE8F88F0C
:101530003068C0438000F3D40020F7E788380240C9
:101540002DE9F04705000F4663D0444E306800F0A7
:101550000F00B84209D2306820F00F0038433060E5
:10156000306800F00F00B84253D128683C4C810726
:1015700012D5400703D5206840F4E0502060287859
:10158000000703D5206840F460402060A968206807
:1015900020F0F000084320602878C0072AD03049A6
:1015A00068680839012810D00968022810D0890716
:1015B00000292EDA216821F0030101432160FFF7A1
:1015C0009DFC804641F288390DE009688903EFE708
:1015D0008901EDE7FFF792FCA0EB0801494502D92C
:1015E0000320BDE8F0876868216801F00C01B1EBC9
:1015F000800FEFD1306800F00F00B8420BD930688F
:1016000020F00F0038433060306800F00F00B8421F
:1016100001D00120E5E72878400705D5E968206872
:1016200020F4E050084320602878000706D5286998
:10163000216821F4604141EAC000206000F03CF8DC
:101640002168084AC1F30311515CC840064908608B
:101650000020FFF76DFC0020C3E70000003C0240C3
:1016600008380240DC2D00080C000020014800680A
:10167000704700000C000020044905480968006814
:10168000044AC1F38221515CC840704708380240C7
:101690000C000020EC2D000804490548096800688A
:1016A000044AC1F34231515CC840704708380240D7
:1016B0000C000020EC2D0008154910B515480968EC
:1016C00011F00C0213D01449042A0FD0082A0ED1AD
:1016D0000F4C241F2268236802F03F025B0207D5EB
:1016E0002068C0F38810A0FB010106E0084610BD89
:1016F0002168C1F38811A1FB00010023FEF798FDCA
:101700002168C1F30141491C4900B0FBF1F010BD53
:10171000083802400024F40040787D012DE9F84F9C
:1017200005004FF000076ED02878DFF82093A9F16C
:10173000040AC007AAF104044CD0D9F800104846A6
:10174000C1F38101012908D00068C0F3810002289B
:101750000AD1DAF80000400206D52068800339D5A6
:1017600068680028DFD035E06868B0F5803F0BD0AE
:1017700010B1B0F5A02F11D0206820F48030206087
:10178000206820F4802002E0206840F4803020604F
:10179000686890B1FFF7B2FB06460AE0206840F4A3
:1017A00080202060F0E700BFFFF7A8FB801B6428C3
:1017B00072D820688003F7D50CE0FFF79FFB064640
:1017C00005E000BFFFF79AFB801B6428F0D8206873
:1017D0008003F7D42878800742D5D9F8001048460E
:1017E00011F00C0F08D00068C0F3810002280BD163
:1017F000DAF80000400207D42068800718D5E868AE
:10180000012800D114E01EE1E8680028206817D004
:1018100040F001002060FFF771FB064605E000BFC5
:10182000FFF76CFB801B0228C2D820688007F7D521
:101830002869216821F0F80141EAC00020600FE02A
:1018400020F001002060FFF759FB064605E000BFCD
:10185000FFF754FB801B02281ED820688007F7D4AE
:101860002878000729D5794869696C3000298046B5
:10187000016812D041F001010160FFF73FFB06460D
:1018800005E000BFFFF73AFB801B022804D8D8F818
:1018900000008007F6D510E089E021F00101016029
:1018A000FFF72CFB064604E0FFF728FB801B02280D
:1018B0007DD8D8F800008007F6D4287840076BD58B
:1018C000DFF8888108F13808D8F80000C0000BD490
:1018D000D8F8001041F08051C8F80010D8F8000086
:1018E000012700F08050009059480168C90512D4C2
:1018F0000168834641F480710160FFF7FFFA0646F4
:1019000005E000BFFFF7FAFA801B64284FD8DBF828
:101910000000C005F6D54D4EA868683601280AD0EB
:1019200008B1052811D0306820F00100306030681F
:1019300020F0040002E0306840F001003060A86848
:10194000A0B1FFF7DBFA83460CE0306840F00400FA
:101950003060F0E7FFF7D2FAA0EB0B0141F28830DC
:10196000814268D830688007F4D50EE0FFF7C6FAE8
:10197000834607E0FFF7C2FAA0EB0B0141F2883083
:10198000814258D830688007F4D42FB1D8F80010BD
:1019900021F08051C8F80010A869E0B3D9F8001010
:1019A000C1F3810102294ED00228206800E042E004
:1019B00020F08070206003D0FFF7A0FA05463DE0DC
:1019C000FFF79CFA064604E0FFF798FA801B02280E
:1019D00031D820688001F7D4D5E90921DFF874C037
:1019E000D5E9070695F830304F0895F82C103043AC
:1019F0000CEB074545EA8212104340EA016040EAD9
:101A00000370CAF80000206840F080702060FFF783
:101A100075FA054605E014E0FFF770FA401B02284E
:101A200009D820688001F7D50BE000BFFFF766FA00
:101A3000401B022802D90320BDE8F88F20688001EE
:101A4000F4D40020F8E70120F6E70000083802404F
:101A5000007000400000FFFF401EB0F1807F10B515
:101A600001D3012010BD4FF0E02460610F21601709
:101A700000F0AAFB0020A0610721216110BD10B574
:101A8000040002D0606F10B107E0012010BD0020FB
:101A900084F87000204600F025F824206067206854
:101AA000016821F001010160204600F01DFA0128C3
:101AB000ECD0606A10B1204600F094F920684168CB
:101AC00021F4904141602068816821F02A01816001
:101AD0002068016841F0010101602046BDE8104026
:101AE00000F0E4B910B586B0044614216846FEF74C
:101AF000D7FB1249206888421ED11148016841F481
:101B000080210160006800F4802005900C481038A6
:101B1000016841F00801016000680221002200F024
:101B200008000590032307244FF440708DE81F0040
:101B300004486946FFF7F0F806B010BD00480040C1
:101B400040380240000C02402DE9F8430446406F43
:101B50001F4616460D4620284FD1CDB1C6B194F888
:101B60007000012849D0012284F8702021214FF013
:101B70000008C4F87C806167FFF7C0F98146A0685F
:101B8000A4F85060A4F85260B0F5805F03D004E080
:101B90000120BDE8F883206910B12E46002510E031
:101BA00000260EE08021204600F0C8FAB8B9C6B180
:101BB00016F8010B21688862B4F85200401EA4F8A0
:101BC0005200B4F852004B464FF000020097002834
:101BD000E8D14FF04001204600F0B0FA38B10320C0
:101BE000D7E735F8020B2168C0F30800E3E72021AE
:101BF0006167002084F87080CBE70220C9E7FEE728
:101C00007FB5154800240125124900942A04019447
:101C10000294039480E81600856104610F4980F8FE
:101C20002040C0E90A14C561C46080F830404461B6
:101C3000FEF745FF08B1FEF78CFE0A206946CDE9A4
:101C4000000505480294FEF785FE002801D0FEF746
:101C500080FE7FBD00200140100000200100000F29
:101C600030B587B014216846FEF71AFB12480168A8
:101C700041F004010160016801F00401059101686F
:101C800041F00801016000684FF480740B4D0022A0
:101C900000F00800214605902846FFF729F90021A9
:101CA00000940120CDE90101284603916946FFF720
:101CB00033F807B030BD0000303802400008024061
:101CC0000D48002110B50B4C0C224FF4E133046099
:101CD000C0E90131C160C0E904128161C1610162E2
:101CE0004162FFF7CCFE002803D0BDE81040FEF7AC
:101CF00030BE10BD0048004058000020FEE770478D
:101D000070477047FFF700B910B5B8B0342124A868
:101D1000FEF7C6FA142131A8FEF7C2FA90216846F0
:101D2000FEF7BEFA1848016841F080510160006872
:101D300000F0805036901548016821F4404141F48C
:101D400080410160006802210122249100F440409A
:101D50003690102000242A94CDE9272024A8FFF7EC
:101D6000DDFC0F20CDE931040021339431A83494F7
:101D70003594FFF7E5FB4FF48070139400906846AC
:101D8000FFF740F938B010BD403802400070004005
:101D9000104A30B51048146800210F4B44F4700409
:101DA0001460083305680D4A0D4C45F001050560C7
:101DB00019600368051D1340074A03600C322C604C
:101DC0000568E305034C25F480250560803C11601F
:101DD000236030BD88ED00E000380240FFFFF6FED2
:101DE0001030002490F82410C90706D00168836AD7
:101DF0004A6822F400321A434A6090F82410890796
:101E000006D50168C36A4A6822F480321A434A60E0
:101E100090F82410490706D50168036B4A6822F43C
:101E200080221A434A6090F82410090706D50168F9
:101E3000436B4A6822F400421A434A6090F8241027
:101E4000C90606D50168836B8A6822F480521A435A
:101E50008A6090F82410890606D50168C36B8A68E9
:101E600022F400521A438A6090F82410490611D5D2
:101E70000168036C4A6822F480121A434A60016CBC
:101E8000B1F5801F06D10168436C4A6822F4C00294
:101E90001A434A6090F82410090606D50168826C3E
:101EA000486820F4002010434860704738B500258A
:101EB0000446C567FFF722F803462068006800075C
:101EC0000BD56FF07E400090002220464FF40011A9
:101ED00000F034F908B1032038BD2020606784F891
:101EE0007050A067002038BD2DE9F041044680689D
:101EF000DFF818C2864F2368D4E90452E169284309
:101F00001E6800250A438349104306EA0C0606436F
:101F10001E604FF400422068E668436823F4405393
:101F2000334343602368A669206AD3F808C030436E
:101F30002CF4306606439E602068B8420AD10868D7
:101F400010F0030052D001287BD002287AD0032859
:101F50006ED186E0704B98420AD1086810F00C00F0
:101F600079D004287BD0082877D00C2860D178E07D
:101F70006A4B98420AD1086810F030006BD01028E4
:101F80006DD0202869D0302852D16AE0644B984245
:101F90000AD1086810F0C0005DD040285FD08028CA
:101FA0005BD0C02844D15CE05E4B98420DD10868FC
:101FB00010F440704FD0B0F5807F50D0B0F5007F66
:101FC0004BD0B0F5407F33D14BE0574B98420FD107
:101FD000086810F4406009D0B0F5806F3FD0B0F5CC
:101FE000006F3AD0B0F5406F22D13AE0012120E0F5
:101FF0004E4B98420DD1086810F440502BD0B0F5EC
:10200000805F2CD0B0F5005F27D0B0F5405F0FD1D6
:1020100027E0474B98420BD1086810F440401AD093
:10202000B0F5804F1BD0904217D0B0F5404F18D07C
:102030001021E0694FF6EF76904238D109295DD240
:1020400002E00CE009E006E0DFE801F00D1027589F
:102050002A5858582D000021EBE70221E9E7042116
:10206000E7E70821E5E7FFF707FB01E0FFF714FBCF
:102070000146D4F80400490001EB5001B1FBF0F037
:1020800080B2A0F11001B14238D84FF6F073216848
:10209000C0F342021840104324E026496068EBE791
:1020A000FFF70AFBE4E760684FF48031E4E70929B1
:1020B00024D2DFE801F0050819231C2323231F0085
:1020C000FFF7DAFA01E0FFF7E7FA0146D4F8040077
:1020D00001EB5001B1FBF0F080B2A0F11001B14270
:1020E0000CD82168C8600AE013496068F0E7FFF780
:1020F000E3FAEAE7606802EB5001EBE70125002014
:10210000206660662846BDE8F0810000F369FFEFB5
:102110000010014090380240004400400048004058
:10212000004C004000500040001401400078004086
:10213000007C00400048E8010024F4002DE9F04153
:10214000984617460E460446069D08E0681C06D0D1
:10215000FEF7D4FEA0EB0800A8420BD855B12068CA
:10216000C06936EA000017D00020B842EED0002047
:10217000BDE8F0812168202000220B6823F4D07391
:102180000B6021688B6823F001038B606067A06798
:10219000032084F87020EBE70120E6E7FEE700006B
:1021A0000FB4084B10B504A902AA039800F0EEF88A
:1021B000044602A9002000F080FC204610BC5DF817
:1021C00014FB0000BB2A0008090700284FEA116130
:1021D00004DB00F1E02080F80014704700F00F00ED
:1021E00000F1E02080F8141D704702E008C8121FBB
:1021F00008C1002AFAD170477047002001E001C1F0
:10220000121F002AFBD170472DE9FF5F82B0002129
:10221000DDE90430020DDDF840B0034318D044F688
:102220001050A2F2FF3242431514119801281FD01A
:10223000A5EB0B00401C5FEA000A4FF000064E4F72
:10224000DFF83891B046504615D5CAF1000413E0C6
:10225000119801244AA3012801D16FEA0B010298C9
:10226000119AC0E90031C0E9024206B0BDE8F09F12
:10227000CBF10000DFE704460021404A491842EB59
:102280000450CDE9001012E0E00707D032463B468B
:1022900040464946FEF7F2F88046894632463B46BC
:1022A00010461946FEF7EAF806460F466410002C61
:1022B000EAD1DDE90401DDE90023BAF1000F06DA15
:1022C000FEF7DCF842464B46FEF7D8F805E0FEF78D
:1022D00047F942464B46FEF743F904460E460022B4
:1022E000284BFEF7C5F903D84FF0FF30014607E051
:1022F0000022254B20463146FEF719F8FEF79FF9DC
:10230000102409E0002C0ADB0A220023FDF790FFCD
:10231000039B30321A55641E50EA0102F2D1641C4C
:10232000039AC4F111031444119A012A03D0012223
:1023300008430DD10AE0084304D000204FF0110BF0
:10234000119072E7A3EB0B056D1E0DE05B4504DDFC
:102350004FF0000205F1010504E003DA4FF000023E
:10236000A5F10105002AECD002981199C0E90231CB
:10237000C0E9004579E70000000014400000F03F8C
:10238000300000000000F0430000E03F2DE9FF4F67
:1023900095B09B468946064600250FE2252877D151
:1023A00000242746F84A0121059400E0044316F86A
:1023B000013F203B01FA03F01042F7D130782A2880
:1023C00011D06FF02F033078A0F13002092A16D80F
:1023D000059A44F0020402EB820203EB420210442D
:1023E000761C0590EFE759F8042B0592002A03DAD2
:1023F000504244F40054059044F00204761C3078B6
:102400002E2816D116F8010F44F004042A280DD006
:102410006FF02F023078A0F13003092B09D807EBB9
:10242000870302EB4303C718761CF3E759F8047BD4
:10243000761C30786C280FD006DC4C2817D0682822
:102440000DD06A2814D104E0742810D07A280FD156
:102450000DE044F400140AE044F4801401E044F474
:1024600040147278824202D104F58014761C761CE6
:10247000307866280BD013DC582877D009DC002888
:1024800075D04528F6D04628F4D047281AD19DE1CA
:1024900018E0632835D0642879D0652812D195E1F9
:1024A000702873D008DC6728F1D069286FD06E28B7
:1024B0000DD06F2806D1B5E073282CD0752875D0C3
:1024C000782874D05A46179990476D1C75E1C4F36B
:1024D0000250022809D003280DD0D9F80010042892
:1024E0000DD00D6009F1040967E1D9F80010EA1771
:1024F000C1E90052F6E7D9F800100D80F2E70D703F
:10250000F0E719F8041B8DF8001000208DF8010089
:10251000EA46012003E059F804AB4FF0FF306107B1
:102520004FF0000102D40DE008F101018846B942E4
:102530000FDA8045F8DB1AF808100029F4D108E01A
:1025400008F1010188468142FADB1AF808100029D7
:10255000F6D105985B46A0EB080721463846179A46
:1025600000F094FA284400EB080507E04DE029E16B
:102570000DE01AF8010B5A4617999047B8F1010877
:10258000F7D25B4621463846179A13E142E00A2209
:102590000092C4F302524FF0000A022A08D059F800
:1025A00004CB032A4FEAEC710AD00DE029E02AE0BF
:1025B00009F1070121F00702F2E802C1914609E0A2
:1025C0000FFA8CFC4FEAEC71042A03D14FFA8CFC11
:1025D0004FEAEC71002907DA0A460021DCF1000C11
:1025E00061EB02012D2202E0220504D52B228DF899
:1025F0000420012203E0E20701D02022F7E7904601
:1026000059E00A2102E010220DE010214FF0000AEB
:1026100000910BE010224FF0000A44F00404082758
:10262000009203E008224FF0000A0092C4F3025225
:10263000022A05D059F804CB0021032A08D009E06A
:1026400009F1070121F00702F2E802C1914605E015
:102650001FFA8CFC042A01D10CF0FF0C4FF000088B
:10266000220728D5702806D0009B83F0100353EA78
:102670000A0305D00EE040228DF80420012208E074
:102680005CEA010206D030228DF804208DF80500A6
:1026900002229046009B83F0080353EA0A030AD102
:1026A0005CEA010201D1620705D530228DF80420D1
:1026B0004FF001087F1E582804D034A003900EA8C4
:1026C00002900DE036A0F9E753466046009AFDF708
:1026D000AFFD84460398825C0298401E029002700F
:1026E0005CEA0100F0D1029806A9081A00F1200A5C
:1026F000600702D524F4803400E00127574502DD4D
:10270000A7EB0A0000E0002000EB0A01009005980A
:102710004144401A0590E00306D45B462146179ACF
:10272000059800F0B3F90544002706E001A85A46D1
:10273000C05D179990476D1C7F1C4745F6DBE00391
:102740000CD55B462146179A059800F09FF9054481
:1027500004E030205A46179990476D1C0099481E96
:1027600000900029F5DC08E0029802995A460078AA
:10277000491C0291179990476D1CBAF10001AAF10A
:10278000010AF1DC65E10000092801003031323333
:10279000343536373839616263646566000000009D
:1027A0003031323334353637383941424344454687
:1027B0000000000000F058F90544761C307800282D
:1027C0007FF4ECAD19B02846BDE8F08F620700D465
:1027D000062709F1070222F0070CFCE80223E14674
:1027E00003F000485FEA080C02D00FF2702C0DE0F5
:1027F0005FEA045C02D50FF2682C07E05FEAC47C54
:1028000002D00FF2602C01E0AFF2700C4FF0FF38F5
:1028100023F00043CDF850C065280CD006DC4528D5
:1028200009D046281DD047283DD13DE0662818D064
:1028300067287ED138E00021112F01DB112000E054
:10284000781CCDE9000106A90EA8FFF7DDFCDDE943
:102850000F010E9A03910021009207F1010A0491E1
:102860004DE04FF000400097CDE9011006A90EA8F9
:10287000FFF7CAFCDDE90F0203920E9B11990022BB
:10288000DDF80CA00093049211B9791C00EB010A49
:10289000B7EB0A0004D4C0F1FF3007F1010A04903D
:1028A000AAEB0700019044E0012F00DA0127002184
:1028B000112F01DD112000E03846CDE9000106A905
:1028C0000EA8FFF7A1FCDDE90F010E9A039100218C
:1028D00004910092BA4621070CD40399514500DABD
:1028E0008A46BAF1010F05DD009AAAF10101515C97
:1028F000302908D0B84202DA10F1040F06DA0121BB
:10290000CDE9011015E0AAF10101E9E7002805DC95
:10291000049901440491AAEB000102E0411C5145D5
:1029200000DD8A460499401A401C01904FF0004097
:102930000290200704D40198504501DBCDF80480B3
:1029400000208DF84F0002980DF14F07B0F1004FB5
:1029500025D02B200E9002984FF0020800280CDAA8
:10296000404202902D200E9007E00A210298FDF7C8
:10297000A9FC3031029007F8011DB8F10001A8F15F
:102980000108F2DC02980028EFD1791E0E98087039
:10299000307800F0200040F0450007F8020D12A842
:1029A000C01B00F107081498007800B1012000EB6B
:1029B0000A01019801EBE07105984144401A401E5C
:1029C0000590E00306D45B462146179A059800F06F
:1029D0005DF805441498007818B15A461799904745
:1029E0006D1CE00324D55B462146179A059800F03C
:1029F0004DF805441CE00498002807DBDDE90301DD
:102A0000884203DD0098405C179901E01799302057
:102A10005A469047049805F10105401C049001981E
:102A2000401E019004D12E205A46179990476D1CE4
:102A3000BAF10001AAF1010ADDDC05E017F8010B8B
:102A40005A46179990476D1CB8F10001A8F101088A
:102A5000F4DC5B462146179A0598ABE62D00000092
:102A60002B000000200000002DE9F0410446002565
:102A70001E461746880404D405E039462020B04796
:102A80006D1C641EF9D52846BDE8F0812DE9F041A2
:102A9000044600251E469046C80301D5302700E0B5
:102AA0002027880404D505E041463846B0476D1C10
:102AB000641EF9D52846BDE8F0810A68531C0B60F6
:102AC000107070472DED028BA8B0FEF725FAFFF7C6
:102AD0001BF9FFF7C5F8FFF793F8FFF7F1F8FDF7DB
:102AE000FFFE88484FF48C7127912821269142F2ED
:102AF000D051D0F800A0D0F820900669056BDFED2A
:102B0000828A25914FF000084168229181682391C3
:102B1000C168249141691C9181691D91C1691E910F
:102B2000416A1F91816A2091C16A2191416B19917B
:102B3000816B1A91C06B1B907448FEF76BF86C4662
:102B4000734800224FF48071FEF7D2F92798FDF701
:102B5000E9FE6E486421FEF70DF80028F9D16B48B4
:102B6000FDF7AAFF6BA183466846FFF719FBC7B2C2
:102B70005A46E0196DA1FFF713FB3844C7B22698F7
:102B8000FDF7D0FE012262481102FEF7B1F9259847
:102B9000FDF7C8FE00EE10BA9FED684B9FED692B64
:102BA0009FED6A1B9FED6B3BB8EEC00B20EE040B54
:102BB000B7EEC00BB7EEC00A10EE021B21EE031BEE
:102BC000B7EEC18BB5EEC08AF1EE10FA02D2B0EECC
:102BD000688A04E018EE100A604988420ADCAAEB11
:102BE0000601A9EB050091FBF0F001EE105A01EE91
:102BF000906A4BE0594918EE100AC9430844B0F5F1
:102C0000980F0AD21C992298421A19991F98411AB2
:102C1000199801EE100A1C9810E018EE100A50499D
:102C20000844B0F5501F1CD21D992398421A1A99D6
:102C30002098411A1A9801EE100A1D9801EE900A88
:102C400092FBF1F0B8EEC12AF8EEE11A38EE422A12
:102C500001EE100AB8EEC11A41EE021ABDEEE11AF9
:102C600022E018EE100A3F490844B0F5D00F1DD2FB
:102C70001E9924981B9A411A2198821A1B9801EEDA
:102C8000100A1E9801EE900A91FBF2F0B8EEC12AEC
:102C9000B8EEE11A38EE422A01EE900AF8EEE11A97
:102CA00001EE821ABDEEC11A11EE108AE01953EC42
:102CB000102B2DA1FFF774FAB7EEC80A3844C7B23B
:102CC000E0192DA153EC102BFFF76AFA3844424665
:102CD000C0B220442DA1FFF763FA2F480068C169F4
:102CE000C9434906FBD46846FDF7E5FA82B22A4893
:102CF0004FF4C8736946FEF727FF41F28830FDF7AD
:102D0000F9FF1DE79C2D00080000000010000020C6
:102D1000000802402D2D2D2D2D2D2D2D2D2D2D2D4D
:102D20002D2D2D2D2D2D2D2D2D0A0D004D65617371
:102D3000757265643A2025640A0D000000000000E9
:102D40000000543FC3F5285C8FC2C53F9A999999FA
:102D50009999B93F00000000000059400000C841A7
:102D6000FFFFEBBDFFFFB3BD566F6C746167653A43
:102D700020252E32660A0D006475737444656E73E7
:102D80006974793A20252E32660A0D004151493A7C
:102D90002025640A0D0000005800002019000000E2
:102DA0003200000064000000C800000000000000C5
:102DB0001A00000033000000650000001900000048
:102DC00025000000320000005A0000000000000052
:102DD0001A00000026000000330000000000000080
:102DE00000000000010203040607080900000000BB
:102DF00001020304142E000800000020100000004F
:102E0000EA210008242E000810000020C804000059
:102E1000FA2100080100000010000000000000007E
:042E20000024F40096
:04000005080001F9F5
:00000001FF
